:02000002B0004C
:1040000000400B00DA770B00000006000C000502F0
:084010000401B41400000000DB
:0440180028690B0008
:10401C00034613F8012B002AFBD1181A01387047FC
:10402C0009480A49884208B505D0094A824202D09B
:10403C00121A02F0C9FB0748074A0021121A02F0B3
:10404C00D1FB014808BD00BFA8E5032040770B0059
:10405C0014E6032014E60320F0E7032070B5074EA6
:10406C00074C01F0E1FFA41BA4080025AC4200D1D1
:10407C0070BD56F8043B98470135F7E7F8760B000E
:10408C001C770B0000F060B808B500F085F8BDE8AF
:10409C00084001F081BF01F067BD01F06DBD00006B
:1040AC0008B5034A03490C2001F0C2FCFEE700BF2F
:1040BC00CD570B003C690B000078B0FA80F040093A
:1040CC007047012303707047704710B510210446E8
:1040DC00FFF7E3FF204610BD0EB403B503AB002180
:1040EC0053F8042B019301F0E8FE02B05DF804EBE9
:1040FC0003B0704773B5044608462279A36832B101
:10410C00A3B90B4902B0BDE8704001F09BBE094A4F
:10411C00267B094D0949647B012E18BF2946CDE940
:10412C0000140749FFF7D8FF02B070BD054AEFE74E
:10413C0062690B0059690B005E690B005A690B0030
:10414C0078690B0051690B001FB5084800F0C6FCDC
:10415C0001A801F031FA502101A801F03AFA01A9A5
:10416C00034801F099FA05B05DF804FB54E603200E
:10417C002CE6032010B5074C204600F0B5FE0121BB
:10418C00204600F05CFC00224FF00113C4E904232C
:10419C0010BD00BF54E603201FB50F4800F0C7FC4C
:1041AC00FFF7E8FF0D4802A901F04CFA88B10C4961
:1041BC00094801F05AFEBDF90C300093BDF90820F6
:1041CC00BDF90A3007490448FFF786FF024801F0A1
:1041DC00F9F805B05DF804FB54E603202CE6032047
:1041EC0095690B009E690B0037B50021012001F089
:1041FC0037FC1C4B1C4C1D4D0022C3E90022A2F5C0
:10420C0080329A60032001F01BFC0821204601F04B
:10421C00EBF9174B23602978BFF35B8F11F0010189
:10422C000BD128460191FFF747FF019928B111489E
:10423C0001F006FD2846FFF744FF0E4BE360032315
:10424C00236100230C4A237523770C480C4B236203
:10425C0007210123A261A38403B0BDE8304000F024
:10426C000FBC00BF20E603202CE6032014E603203D
:10427C00CC740B0018E60320B0690B0054E6032045
:10428C00809698002DE9F04F85B01F46BDF9388017
:10429C00BDF83C30A8EB0209A7EB010AB9F1000FFD
:1042AC00B8BFC9F10009BAF1000FB8BFCAF1000AD2
:1042BC00D14583460C46154604DD3A462C46474606
:1042CC000D469046BC4205DD2A46454690462246A0
:1042DC003C4617463E1BB2B20092A8EB050282EA9E
:1042EC00E271A1EBE271C6F3C03202FA86F64545E3
:1042FC00B4BF01224FF0FF32019176100292BC4202
:10430C001CDCDBF800200393D145D2F81880C7BF22
:10431C00294622462A4621465846C047019A039B05
:10432C00B61AB1B236B2002E05DA029A1544009ACA
:10433C0056182DB236B2013424B2E0E705B0BDE810
:10434C00F08F704710B404682469A4465DF8044BE0
:10435C00604730B40468BDF808500295A46BA446BD
:10436C0030BC604730B40468BDF808500295E46B6B
:10437C00A44630BC604770B4BDF90C50BDF8106059
:10438C000468CDE90356246CA44670BC60472DE943
:10439C00F3411C460368BDF820805B690546164650
:1043AC00013C34440F4624B298472B68CDF8048066
:1043BC0000949C6A28463B4632463946A0472B68F7
:1043CC00DB6A284602B0BDE8F04118472DE9F341FD
:1043DC001D460368BDF820805B69044617460E46EF
:1043EC009847CDE9007822686B1E3344956A2046C5
:1043FC001BB23A463146A8472368DB6A204602B016
:10440C00BDE8F04118472DE9F3471E460368BDF996
:10441C0028905B69BDF82C800C46054617469847DA
:10442C002644B4422B680BDACDF80080D3F820A0D8
:10443C0021464B463A4628460134D04724B2F0E791
:10444C00DB6A284602B0BDE8F047184713B502688E
:10445C000191B0F90E100091146CB0F90C300022DF
:10446C001146A04702B010BD2DE9F74399421646FC
:10447C00BDF92870BDF82C90026880460D461C468C
:10448C0013D1BE42C8BF3346CDF82890C4BF3E46B8
:10449C001F467B1C946B9B1B1BB232462946404625
:1044AC00A44603B0BDE8F0436047BE420AD199422E
:1044BC00C2BF0B4625461C46631CCDF82890D46B16
:1044CC005B1BE9E753699847CDE90079D8F80030D0
:1044DC0040469F6A324623462946B847D8F80030F2
:1044EC00DB6A404603B0BDE8F04318472DE9F347BB
:1044FC001D460368BDF82C805B69BDF92890044605
:10450C000F46164698472368CDF80080D3F824A0B0
:10451C0032462B4639462046D0472368CDF80080DA
:10452C0009F1FF323244D3F824A039462B462046F9
:10453C0012B2D0472368CDF80080D3F820A03246C1
:10454C004B4639462046D0476B1ED9192368CDF807
:10455C0000801D6A20464B46324609B2A8472368A4
:10456C00DB6A204602B0BDE8F0471847704701F0FF
:10457C000303B0F90A208376C907B0F9083059BF94
:10458C008381C2818281C3817047000030B5428132
:10459C00C281074A074D0181002481814FF0FF3110
:1045AC00C0E905124460056004610477046230BD03
:1045BC0001010001C46E0B002DE9F04F89B0CDE96B
:1045CC0002120268BDF948800493BDF94C3052695F
:1045DC000593BDF850A00446904718F107024FF020
:1045EC00000648BF08F10E024FEAE20B0196354671
:1045FC00039B019ABDF904109A18059B8B4212B2C9
:10460C0027DD049B33444FF0000906930FFA89F021
:10461C0080451FFA89F117DD4F0705BF069BC010B7
:10462C006D001D5C18BFEDB22B060AD5029B2068ED
:10463C0007921944836909B21F4620465346B8476E
:10464C00079A09F10109E1E7019B013301935E44EB
:10465C00CEE72368DB6A204609B0BDE8F04F184767
:10466C002DE9F04F2DED028B91B01646026ABDF884
:10467C0074809DF878509DF87C4003911F46BDF8DE
:10468C00703004938346002A40F0C580B0F90C309A
:10469C008B4240F34C81B0F90E30B34240F347816A
:1046AC00062313FB0513002B40F3418106EBC403D7
:1046BC00002B40F33C81037F1BB9AF2F84BF013724
:1046CC00FFB2DBF8003058465B6998470522099227
:1046DC0000220592984A07EB8703D3180C93B3B2C8
:1046EC000693059A0C9B9B5C0793ABB20B93BDF89E
:1046FC000C300893039B02FB05F919FA83F90FFAA6
:10470C0089F308EE103A08230A93039B02EB030A81
:10471C004FF000090FFA8AFA079ADBF80030D2073B
:10472C0052D5012D1FFA89F23ED1012C3CD19B6947
:10473C0006991F46049B0A4412B251465846B84784
:10474C0009F101034FFA83F9079B5B0807930A9B56
:10475C00013B13F0FF030A93DED1059F01377BB2B7
:10476C000593099B013B13F0FF030993B9D1049BFB
:10477C0043450FD0012DDBF800303BD1012C39D152
:10478C000899CDF8008005311C6A3246082309B21D
:10479C005846A047DBF80030DB6A584611B0BDEC38
:1047AC00028BBDE8F04F1847069914FB02F20A443D
:1047BC00049901910094DB6918EE101A1F4612B28D
:1047CC002B465846B847BBE7049A4245B8D0012D52
:1047DC001FFA89F207D1012C05D19B6906991F4656
:1047EC000A444346A8E70699CDF8048014FB02F26C
:1047FC000A44DFE70B9ACDF8048002EB8201089A99
:10480C00E4000A4411460094DC6932462B4609B296
:10481C005846A047BEE7137A516812680B92FF1AEC
:10482C00FFB201EBC70331F8372006929A78099250
:10483C00DA780C92012D93F9052093F906A00A92CF
:10484C0001D8012C57D9BDF9283008930FFA8AF3F7
:10485C000793DBF8003058465B699847B3B24FF0CA
:10486C0000080E931AFA86F3C14647460F930C9B29
:10487C009F428FD2079B0E9A3B4403FB04230022DA
:10488C0005920F9A1BB202EB070A08EE103A0FFAC8
:10489C008AFA4346099A0599914241D25A1CD2B2DE
:1048AC005B070D9207D1069B06990B9A01339BB2BD
:1048BC0012F80190069319F0800F12D0012DDBF83D
:1048CC000030BDF80C101AD1012C18D10A9A9B6932
:1048DC001144059A11441E465246049B09B258468F
:1048EC00B047059E0136F3B24FEA490905935FFACA
:1048FC0089F90D9BCEE70023CDE90733A9E705988D
:10490C00089A024402FB0511049ACDE90042DB69C6
:10491C0018EE102A1E4609B22B465846B047E0E75F
:10492C00099B013798445FFA88F8FFB29FE711B0F2
:10493C00BDEC028BBDE8F08FBC690B00F0B5026AD0
:10494C0085B004460B46002A34D10A2908D1438A83
:10495C000282427E03EBC2036382012005B0F0BDEC
:10496C000D29FAD0E17E007E657E71B1B4F910603C
:10497C00062111FB0061B4F90C60B142C1BFB4F95E
:10498C001210228201EBC5026282E28A0192A28A93
:10499C000092CDE90205B4F91220B4F910102046AA
:1049AC00FFF75EFE237E228A03EB430302EB4303F5
:1049BC002382D2E70A2907D100230382417E927A0F
:1049CC00438A01FB0233C7E70D29C6D0157AA942E9
:1049DC00C3D3517A9942C0D351685D1BEDB201EB40
:1049EC00C505A87828B3E97819B3E17E267E677EE1
:1049FC0091B195F905100844B4F9101006FB00119B
:104A0C00B4F90C00814207DD00202082B4F91210A9
:104A1C00927A02FB07126282E28A0192A28A0092C7
:104A2C00CDE90267B4F91220B4F910102046FFF753
:104A3C0017FE2979227E238A01FB0233B8E701296C
:104A4C0038BF0121017641767047000010B5064B46
:104A5C0003600446006D08B100F0CAFE204600F069
:104A6C00D1F8204610BD00BF1C6F0B0010B50446DA
:104A7C00FFF7ECFF20467021FFF70FFB204610BD1F
:104A8C0030B585B004460D4601F072FE104A11494E
:104A9C00CDE901214FF0FF328021034600922046E0
:104AAC00202200F027F90C4B23600023C4E91435B5
:104ABC0004F1580000F054F804F1600000F050F8D4
:104ACC0004F1680000F04CF8204605B030BD00BF82
:104ADC00801A0600A08601001C6F0B0013B504465B
:104AEC00503000F07DFE636DD90705D502220421FC
:104AFC0004F1580000F048F8636D9A0705D50022C0
:104B0C00032104F1600000F03FF8636D5B0705D5ED
:104B1C000222114604F1680000F036F801230093DC
:104B2C003C220221204600F0EDF902B010BD10B578
:104B3C00436DD907044602D5583000F032F8636D46
:104B4C009A0703D504F1600000F02BF8636D5B0746
:104B5C0005D504F16800BDE8104000F022B810BD86
:104B6C0000210A22C0E900127047002310B5044648
:104B7C00C171837188B201F08DFD08B10323A3715B
:104B8C0000F026FE206010BD38B50C4605461146D7
:104B9C00A0B201F055FD21462846BDE83840FFF78C
:104BAC00E4BF38B50446C07901F074FDA57900382E
:104BBC0025F0080318BF0120C5F340058542A371F9
:104BCC000AD000F005FEA379206083F00203A371E4
:104BDC00A079C0F3C00038BD00F0FAFD2368C01AFC
:104BEC00A3889842F4D3A37903F00103AB42EFD02E
:104BFC0000F0EEFDA379206083F0010343F008037D
:104C0C00E5E7000010B5044B03600446C06A08B128
:104C1C0000F0B2FF204610BD14740B0010B5044612
:104C2C00FFF7F0FF20465021FFF737FA204610BD62
:104C3C00002910B54BDBB0F90C408C4247DD002A43
:104C4C0045DBB0F90E40944241DD847E022C1FD02E
:104C5C00032C26D0012C04D10489D24314440A46D7
:104C6C0021B2012B23D0022B32D083BB002A134656
:104C7C000489C06AB8BFD31DDB1013FB041102F00A
:104C8C00070201239340425C22EA030242541EE0D5
:104C9C000489013C611A4489D243224409B212B2FC
:104CAC00DFE74489013C641A114622B2D9E7002A95
:104CBC0004891346B8BFD31DDB1013FB0411C36A60
:104CCC0002F0070001228240585C02435A5410BD86
:104CDC00002A13460489C06AB8BFD31DDB1013FB2E
:104CEC00041102F00702012303FA02F2435C5A405A
:104CFC00CCE7000070B504461D460026FFF746FCC5
:104D0C00114B2360666215B901F032FD0546FF2395
:104D1C0084F8333084F836309DF9103084F837300D
:104D2C000A4BA363012384F83C30059BA3644FF624
:104D3C00FF72069BA286C4E90A562664A4F8446056
:104D4C00E364204670BD00BF14740B00B0690B0007
:104D5C00F8B50446806A0D4690B194F9301001F014
:104D6C0037FBA06A036800219B689847A06A036818
:104D7C0029469B689847A06ABDE8F84001F02FBB14
:104D8C0094F93530014698B201F06BFC606A20B1A1
:104D9C002946BDE8F84001F00DB80826802794F9A3
:104DAC00330005EA070180B201F05BFC94F9340092
:104DBC00012180B201F055FC94F93400002180B23D
:104DCC0001F04FFC013E4FEA5707E8D1F8BD38B56A
:104DDC000446806A0D4680B1A16C01F0EBFA002DFF
:104DEC00204614BFA721A621FFF7B2FFA06A88B105
:104DFC00E16CBDE8384001F0DDBA606A18B104F12D
:104E0C00380100F069FF94F93600002180B201F0FE
:104E1C0028FCE4E794F93600012180B201F021FC72
:104E2C00606A18B1BDE8384000F03CBF38BD2DE9D0
:104E3C00F8430446806A0D468F1840B394F930103D
:104E4C0001F0C6FAA06A036800219B689847012606
:104E5C00AF42A06A17D01F2E0CD901F0C0FA94F9FA
:104E6C003010A06A01F0B4FAA06A036800219B68B4
:104E7C0098470126A06A15F8011B036801369B6848
:104E8C009847F6B2E4E7BDE8F84301F0A8BA94F904
:104E9C003530014698B201F0E4FBBD4222D0606A85
:104EAC0015F8019B18B1494600F084FFF5E7082678
:104EBC004FF0800894F9330009EA080180B201F040
:104ECC00D0FB94F93400012180B201F0CAFB94F9B3
:104EDC003400002180B201F0C4FB013E4FEA5808B7
:104EEC00E8D1DAE7BDE8F883B0F90A30DA1D48BF3B
:104EFC0003F10E02B0F90830C06AD2105A430021F7
:104F0C0001F070BC2DE9FF411E46C36A9DF8288054
:104F1C0004460F461546C3B12046FFF7E5FFB4F92A
:104F2C000A00B4F90810202821DC202301222038A3
:104F3C00CDE9013200EBD07073237339009301EB90
:104F4C00D171894B40F34F0221E0B0F90A30D81DE2
:104F5C0048BF03F10E00B4F90830C010584300F0FC
:104F6C0003FEE0620028D7D104B0BDE8F0814038E0
:104F7C00C0F3C03202FA80F240230120CDE90130A7
:104F8C00522352390093794B01EBD17152102046C8
:104F9C0041F34F01FFF710FBA06A84F83170002831
:104FAC0078D0002D74D1B4F90A30202B0CBF3C25DD
:104FBC003D2584F83050B8F1000F01D001F0FEF916
:104FCC00FEB194F9370000281BDB012180B201F0FF
:104FDC0037FB94F93700012180B201F042FB01202C
:104FEC0000F0AEFF94F93700002180B201F039FBDC
:104FFC000A2000F0A5FF94F93700012180B201F0DE
:10500C0030FBA06A002874D0A16C01F0D3F9042203
:10501C0057492046FFF70BFF61890139C9B2204679
:10502C00FFF796FE534904222046FFF700FF94F940
:10503C003130012B0CBF102114212046FFF788FEC4
:10504C0004224D492046FFF7F2FEA3684B4A9342D7
:10505C005CD14B4904222046FFF7E9FED9212046BA
:10506C00FFF776FE94F93130012B0CBF2221F12190
:10507C002046FFF76DFE204642490622FFF7D7FE79
:10508C00A06A002863D0E16C01F094F901206BE771
:10509C006DB28EE794F93500012180B201F0D0FA9F
:1050AC0094F93600012180B201F0CAFA94F9360065
:1050BC00012180B201F0D5FA656A3DB1B8F1000F5B
:1050CC003FF47EAF284600F0C5FD79E794F9330034
:1050DC00012180B201F0B4FA94F93400012180B2BC
:1050EC0001F0AEFA94F93400294680B201F0B9FA15
:1050FC0066E7606A18B104F1380100F0EDFD94F92F
:10510C003600002180B201F0ACFA80E71E4A9342CF
:10511C000ED11E4903222046FFF789FE94F9313047
:10512C00012B0CBF9F21CF212046FFF711FE95E7E5
:10513C00174A934292D1174903222046FFF777FE74
:10514C0094F93130012B0CBF1021AF21ECE794F90D
:10515C003600012180B201F084FA606A002895D0F3
:10516C0000F0A0FD92E700BF2C720B006C6F0B00DF
:10517C0074740B0078740B007C740B00800020009E
:10518C0086740B0080740B00800040008A740B0046
:10519C00600010008D740B0070B5002ABDF8105023
:1051AC003DDBB0F90A40944239DD0029BEBF5B18E3
:1051BC001BB20021B0F90840CE18A642C4BF631A36
:1051CC001BB2002B2BDDC06AD61014FB0611014458
:1051DC0002F0070001228240012DD2B216D0022D1E
:1051EC000BD0E5B9D243D2B20B44994217D011F887
:1051FC00010B104001F8010CF7E70B4499420ED05B
:10520C0011F8010B504001F8010CF7E70B449942DF
:10521C0005D011F8010B104301F8010CF7E770BD34
:10522C00F0B50029BDF8145076DBB0F90860B14236
:10523C0072DA002ABEBF9B181BB20022B0F90A40DA
:10524C00D718A742C4BFA31A1BB2002B64DDC2F34C
:10525C00C404C76A16FB041612F00702DBB207EB94
:10526C00060423D0C2F10802D2B22D4993423CBFAE
:10527C004FF0FF0CA2EB030E895C3CBF4CFA0EFC0A
:10528C000CEA0101012D07D0022D2ED04DB917F8D3
:10529C0006C02CEA010103E017F806C041EA0C0134
:1052AC00B955934238D3B0F908100C449A1AD2B2BB
:1052BC00072A0ED9022D1DD113462178C94321701E
:1052CC00083BB0F90810DBB2072B0C44F5D802F000
:1052DC0007020AB3134B012D9B5C1AD0022D1CD074
:1052EC00D5B9227822EA030315E017F806C081EA43
:1052FC000C01D5E7291E18BF01214942C9B213463A
:10530C002170083BB0F90860DBB2072B3444F7D8A6
:10531C00DDE7227813432370F0BD22785340FAE77F
:10532C0064740B006C740B0070B41446827EBDF870
:10533C000C60022A0DD0032A18D0012A11D102893F
:10534C00E443144424B203960A46214670BCFFF78A
:10535C0067BF42890589E44319441444691A24B28D
:10536C0009B20396224670BCFFF716BF4589194453
:10537C00691A09B2E7E730B41446827EBDF80850CA
:10538C00022A0DD0032A18D0012A11D1E21804895F
:10539C00A41A24B202950A46214630BCFFF7FCBE83
:1053AC000289C9431144E2184489A41A09B224B2EF
:1053BC000295224630BCFFF733BF4289C9431144E2
:1053CC0009B2E7E72DE9F8430446806A002842D089
:1053DC00A16C00F0EFFF474905222046FFF727FD9F
:1053EC00218901392046C9B2FFF7B2FCB4F90A3061
:1053FC00DE1D48BF03F10E06D4E90A052389F61019
:10540C0013FB06F615FA86F600283AD094F93010FC
:10541C0000F0DEFFA06A036840219B6898470127D3
:10542C00B542A06A24D01F2F0CD900F0D8FF94F9F4
:10543C003010A06A00F0CCFFA06A036840219B6882
:10544C0098470127A06A15F8011B036801379B6870
:10545C009847FFB2E4E7606A18B104F1380100F034
:10546C003BFC94F93600002180B201F0FAF8B2E767
:10547C0000F0B5FFA06A78B3E16CBDE8F84300F02A
:10548C0099BF94F93500012180B201F0EAF8AE42DF
:10549C00F0D0606A15F8019B18B1494600F08AFCFF
:1054AC00F5E708274FF0800894F9330009EA080162
:1054BC0080B201F0D6F894F93400012180B201F0E9
:1054CC00D0F894F93400002180B201F0CAF8013F01
:1054DC004FEA5808E8D1DAE794F93600012180B296
:1054EC0001F0BFF8606A18B1BDE8F84300F0DABB10
:1054FC00BDE8F88390740B00704710B52821044662
:10550C00FEF7CBFD204610BD10B5044600F1180186
:10551C00C06800F0E1FB208A0021BDE8104001F0DA
:10552C00A0B810B504460121008A01F09AF8E06891
:10553C00BDE8104000F0B6BBF8B51E4603685B69C9
:10554C000F46144605469847012E88BF47F0400782
:10555C00E86847F0800100F02DFC2644B44206D0E8
:10556C00E868002100F026FC04F8010BF6E72B6834
:10557C0028469B6998470120F8BDF8B51E4603687C
:10558C005B690F46144605469847012E88BF47F0C5
:10559C004007E868394600F00DFC2644B44205D0BB
:1055AC0014F8011BE86800F005FCF7E72B682846A7
:1055BC009B6998470120F8BD0022027042708270EE
:1055CC00C270027142718271C27102724272827235
:1055DC007047002241F00701017002718270427025
:1055EC00C271427270470000024AC0E900210022D9
:1055FC0002727047B0740B0013B5036801AADC6823
:10560C000123A0479DF8040002B010BD38B5054633
:10561C000A240F212846FFF7EFFF33284FF0010033
:10562C0004D000F08DFC013CF3D1204638BD10B500
:10563C000446018AC06800F021FB2046BDE81040FA
:10564C00FFF7E4BFF7B50C4627210546FFF7D4FF5B
:10565C0000F00800002814BF012600260FD02B688C
:10566C006A46DF68282106232846B847BDF8003073
:10567C002380BDF802306380BDF80430A38030462F
:10568C0003B0F0BD13B503688DF804201C6901AAA2
:10569C000123A04702B010BD70B503689B68044697
:1056AC000D469847064630B900F0C2FD274900F078
:1056BC00DCFB304670BD2A7820212046FFF7E2FF44
:1056CC006A7821212046FFF7DDFFAA7822212046A7
:1056DC00FFF7D8FFEA7823212046FFF7D3FF2A797A
:1056EC0024212046FFF7CEFF6A7925212046FFF7BB
:1056FC00C9FFAB791BB126212046FFF77DFFAA7AA3
:10570C002E212046FFF7BEFFAB785B06D1D5EA7998
:10571C0032212046FFF7B6FF2A7A33212046FFF7C5
:10572C00B1FF6368002B0ADB6A7A227220463021B3
:10573C00FFF7A8FF31212046FFF75EFFB9E70022F3
:10574C00227230212046FFF79DFFB2E795740B00C3
:10575C0008B5024B1B689B68019308BD68020300E7
:10576C0008B5024B1B68DB68019308BD6802030097
:10577C0008B5024B1B689B68019308BD2C02030003
:10578C0008B5024B1B68DB68019308BD2C020300B3
:10579C0008B5024B1B681B69019308BD2C02030062
:1057AC0008B5024B1B685B69019308BD2C02030012
:1057BC0008B5024B1B685B68019308BD1802030017
:1057CC0008B5024B1B68DB68019308BD1802030087
:1057DC0008B5024B1B685B69019308BD18020300F6
:1057EC0008B5024B1B681B6B019308BD48020300F4
:1057FC0008B5024B1B685B6B019308BD48020300A4
:10580C0008B5024B1B685B6C019308BD4802030092
:10581C0008B5024B1B685B69019308BD6402030069
:10582C0008B5024B1B68DB68019308BD3C02030002
:10583C0008B5024B1B681B69019308BD3C020300B1
:10584C0008B5024B1B685B69019308BD3C02030061
:10585C0008B5024B1B689B69019308BD3C02030011
:10586C0008B5024B1B68DB69019308BD3C020300C1
:10587C0008B5024B1B681B6A019308BD3C02030070
:10588C0008B5024B1B689B6A019308BD3C020300E0
:10589C0008B5024B1B681B6C019308BD3C0203004E
:1058AC0008B5024B1B681B68019308BD2802030056
:1058BC0008B5024B1B68DB68019308BD2802030086
:1058CC0008B5024B1B689B69019308BD28020300B5
:1058DC0008B5024B1B68DB69019308BD2802030065
:1058EC0008B5024B1B681B6A019308BD2802030014
:1058FC0008B5024B1B685B6A019308BD28020300C4
:10590C0008B5024B1B689B6A019308BD2802030073
:10591C0008B5024B1B68DB6A019308BD2802030023
:10592C0008B5024B1B681B6B019308BD28020300D2
:10593C0008B5024B1B685B6B019308BD2802030082
:10594C0008B5024B1B681B6C019308BD28020300B1
:10595C0008B5024B1B681B68019308BD300203009D
:10596C0008B5024B1B685B69019308BD300203004C
:10597C0008B5024B1B68DB69019308BD30020300BC
:10598C0008B5024B1B681B6A019308BD300203006B
:10599C0008B5024B1B685B6A019308BD300203001B
:1059AC0008B5024B1B68DB6B019308BD300203008A
:1059BC0008B5024B1B681B6C019308BD3002030039
:1059CC0008B5024B1B685B6C019308BD30020300E9
:1059DC0008B5024B1B681B68019308BD4C02030001
:1059EC0008B5024B1B681B69019308BD4C020300F0
:1059FC0008B5024B1B685B69019308BD4C020300A0
:105A0C0008B5024B1B689B69019308BD4C0203004F
:105A1C0008B5024B1B68DB69019308BD4C020300FF
:105A2C0008B5024B1B681B6A019308BD4C020300AE
:105A3C0008B5024B1B685B6B019308BD6002030049
:105A4C0008B5024B1B685B68019308BD200203007C
:105A5C0008B5024B1B685B69019308BD200203006B
:105A6C0008B5024B1B68DB6A019308BD20020300DA
:105A7C0008B5034B1B68D3F88830019308BD0000B0
:105A8C002002030008B5034B1B68D3F89430019334
:105A9C0008BD00002002030008B5024B1B685B68C0
:105AAC00019308BD4002030008B5024B1B689B68BC
:105ABC00019308BD4002030008B5024B1B68DB686C
:105ACC00019308BD4002030008B5024B1B681B691B
:105ADC00019308BD4002030008B5024B1B685B69CB
:105AEC00019308BD4002030008B5024B1B689B697B
:105AFC00019308BD4002030008B5024B1B68DB692B
:105B0C00019308BD4002030008B5024B1B681B6AD9
:105B1C00019308BD4002030008B5024B1B681B6BC8
:105B2C00019308BD4002030008B5024B1B685B6B78
:105B3C00019308BD4002030008B5024B1B681B6CA7
:105B4C00019308BD4002030008B5024B1B685B6C57
:105B5C00019308BD4002030008B5024B1B68DB6BC8
:105B6C00019308BD4402030008B5024B1B681B6877
:105B7C00019308BD1C02030008B5024B1B685B684F
:105B8C00019308BD1C02030008B5024B1B685B6A3D
:105B9C00019308BD1C02030008B5024B1B681B6C6B
:105BAC00019308BD1C02030008B5024B1B685B6C1B
:105BBC00019308BD1C020300002240681146FFF748
:105BCC00A3BF002240681146FFF7AEBF4068002219
:105BDC00FFF7A2BF4068002281F00101FFF78CBFE4
:105BEC00002340681A461946FFF77EBF0023406821
:105BFC001A461946FFF770BF002240681146FFF79E
:105C0C0063BF002240681146FFF74EBF4068002278
:105C1C000221FFF751BF002340681A46FFF73CBF33
:105C2C00024B03225A60024A1A607047C4E60320F2
:105C3C00F0740B000021FFF7C3BE0021FFF7B8BEC4
:105C4C0010B5044608462170FFF792FE00236360EE
:105C5C00204610BD13B504460078FFF7EEFF58B987
:105C6C00207801904FF6FF71FFF772FE019802B099
:105C7C00BDE81040FFF7DEBF02B010BD13B50446FF
:105C8C0000780191FFF7D9FF019948B9207801906C
:105C9C00FFF75EFE019802B0BDE81040FFF7CABFE7
:105CAC0002B010BD0078FFF7C5BF0000400830B54A
:105CBC001860002418688842E5B206D90134082C13
:105CCC0002D040081860F5E70725024B5B5D1370A6
:105CDC0030BD00BF24750B002DE9F04306468FB094
:105CEC0000780C46FFF7A9FF00281BDB357814223F
:105CFC00002109A800F076FD0B23002209A92846F3
:105D0C00ADF82430FFF744FE9DF82D3013B19DF80B
:105D1C002C5055B10027B946B846012523795DB101
:105D2C00C3B100200FB0BDE8F083DDF830809DF8E2
:105D3C0034909DF83570F1E7002B35D1A3684345BD
:105D4C0008D18DF820908DF82170BDF82020A38902
:105D5C009A42E6D00023A1688DF80F300A9804AB64
:105D6C000DF10F02FFF7A2FF217985B989B9A3685C
:105D7C0043450ED38DF820908DF82170BDF820206E
:105D8C00A3899A4205D1049B434502D1C9E7002956
:105D9C00F9D100230193637B00939DF80F20237BA3
:105DAC003078FFF7FDFDBCE7CDE900552B462A46C0
:105DBC000121F5E708B50078FFF7D2FDC0B208BDA8
:105DCC00054B02221A60054B054A9A600020C3E974
:105DDC000000FFF735BE00BFD8E60320CCE6032059
:105DEC000000FFFF024800230360FFF709BD00BF5E
:105DFC00DCE60320F8B506460D468F180024BD429C
:105E0C000CD0336815F8011B9B6830469847031E6D
:105E1C0001DB1C44F3E7002C08BF1C462046F8BDF0
:105E2C0013B50446084659B10191FEF7F1F8236801
:105E3C000199DB680246204602B0BDE810401847C5
:105E4C0002B010BD08B5FFF7EBFF08BD03689B68F7
:105E5C00184738B50D210546FFF7F8FF0A2104460F
:105E6C002846FFF7F3FF204438BD38B50546FFF749
:105E7C00D7FF04462846FFF7ECFF204438BD30B569
:105E8C008BB00023012A8DF8243098BF0A2209AC6C
:105E9C000D46B1FBF2F101FB125303F0FF03092B8A
:105EAC0094BF30333733DBB2AA4204F8013DEFD94B
:105EBC002146FFF7B5FF0BB030BD2DE9F04186B0A0
:105ECC0000AF05460E46381D142114463B60FFF703
:105EDC005BFE13280ED8391D2846FFF7A1FF044698
:105EEC001EB12846FFF7B5FF044420461837BD46BF
:105EFC00BDE8F08100F1080323F00703E846ADEBA1
:105F0C00030D2246411C3B686846FFF73DFE69467F
:105F1C002846FFF785FF0446C546E1E7014B024AD8
:105F2C001A607047E0E603202C750B00024B1A68D0
:105F3C00024B1A60704700BFA8E50320E4E603207B
:105F4C000021FFF785BD0000014B00229A607047CD
:105F5C00E8E60320014B1860704700BFACE5032056
:105F6C0008B50B4B43B100F063F903681B69984704
:105F7C00002801DDAFF30080064B43B100F0B8FB05
:105F8C0003681B699847002801DDAFF3008008BD4A
:105F9C00000000000000000008B5FFF7E1FFFFF76C
:105FAC0017FC014B186008BD40E703200548064A62
:105FBC00064908B5121A00F007FC054B054A1A6091
:105FCC0008BD00BF00F4032004F40320AC770B00E1
:105FDC0000F403201E1C279A07B5002300931A46D1
:105FEC006FF07701FFF74EFD03B05DF804FB000086
:105FFC0007B543880A2B08D0502B0BD1094B1B68D3
:10600C004BB103B05DF804EB1847FFF7E5FF03B0A5
:10601C005DF804FB002300931A466FF07701FFF73D
:10602C0031FDF4E7FCE6032010B512480021FFF720
:10603C00BBFD114B1A68114B9A42114B0CBF01223C
:10604C0000221A7001D0FFF7B1FFFFF7B1FB044635
:10605C0000F0D0FB0B4B13B12046AFF300800021B6
:10606C000848FFF779FDBDE8104007480021FFF70D
:10607C00FFBC00BF615F0B0000F403201E1C279ABD
:10608C00F8E6032000000000FD5F0B00704710B520
:10609C0018210446FEF701F8204610BDF0B5037D2B
:1060AC00062B8DB00E4600F104074FF0000412D001
:1060BC0000F1080515F8011D0A223046FFF7DFFE36
:1060CC00AF42044419D0002CF4D02E213046FFF7F7
:1060DC00BDFE0444EEE72F236A4639460A208DF8AC
:1060EC000040FFF795FB6846FDF792FF33680246C8
:1060FC00DB68694630469847044620460DB0F0BD33
:10610C0010B5054B0446112240F8043B002100F069
:10611C0069FB204610BD00BF54750B000346074AAF
:10612C0010B543F8042B01F1100251F8044B43F85D
:10613C00044B9142F9D10A781A7010BD54750B00BA
:10614C0010B59DF8084044EA032343EA024242EAB0
:10615C00016104234160037510BD000007B5064BB7
:10616C000360CB7800938B784A780978FFF7E8FFC7
:10617C0003B05DF804FB00BF54750B00417470470D
:10618C007047704708B50021007CFFF739FC40EAE6
:10619C00E07008BD08B50121007CFFF731FC40EA36
:1061AC00E07008BD08B5007CFFF722FC20EAE07027
:1061BC0008BD08B5007CFFF713FC20EAE07008BDB1
:1061CC0013B50446007C0191FFF712FC00280199DD
:1061DC0001DC607C20B1207CFFF71AFC20EAE07027
:1061EC0002B010BD007CFFF71BBC10B51421044697
:1061FC00FDF753FF204610BD10B54FF47A730446DB
:10620C0008460021C4E90113044B236001232074C8
:10621C0063741146FFF7DCFB204610BD68750B005C
:10622C0010B514220446002100F0DCFA204610BD03
:10623C0010B50F4C88B003A8FFF7F2FF2178BFF31D
:10624C005B8F11F001010FD120460191FDF734FF56
:10625C00019948B103AA0748FFF7CEFF2046FDF786
:10626C0030FF054800F0AAFA024808B010BD00BF84
:10627C0000E7032004E703208D610B007047417495
:10628C00704708B5007CFFF7FBFA20EAE07008BD08
:10629C0008B5007CFFF7CCFA20EAE07008BD08B521
:1062AC00007CFFF7D5FA40EAE07008BD08B5007C29
:1062BC00FFF7C6FA40EAE07008BD007CFFF7D0BAE1
:1062CC0037B5457C04462DB1207C03B0BDE8304089
:1062DC00FFF7A6BA007C0191FFF7D2FA00280199CA
:1062EC00F2DC284603B030BD10B514210446FDF78E
:1062FC00D4FE204610BD000010B54FF47A7304464E
:10630C00084611460022C4E90123044B23600123F3
:10631C0020746374FFF7BCFA204610BD98750B000F
:10632C007047F8B5064615460C468F18BC4206D089
:10633C00336814F8011B9B6830469847F6E72846EB
:10634C00F8BD007C0022FFF7CBBA007C0021FFF7E0
:10635C00CFBA007C0021FFF7D3BA007C0021FFF7F5
:10636C00D7BA007C0021FFF7DBBA10B51421044624
:10637C00FDF793FE204610BD38B5044615464FF484
:10638C007A730022C4E90123094B21740846236067
:10639C002946FFF7D5FABF3008D16B69DB0705D565
:1063AC006868FFF7E9FBE868FFF7E6FB204638BDB5
:1063BC00C8750B00007C0022FFF772BA0023007C2A
:1063CC001A461946FFF774BA007C0022FFF778BA18
:1063DC00C9B2FFF7F9BF007C0022FFF779BA01219F
:1063EC00FFF7F9BF002240681146FFF76DBB002292
:1063FC0040681146FFF788BB002240681146FFF742
:10640C0093BB40680022FFF787BB4068002281F0F5
:10641C000101FFF771BB002340681A461946FFF7CC
:10642C0063BB002340681A461946FFF755BB002290
:10643C0040681146FFF738BB406800220221FFF785
:10644C003BBB002340681A46FFF726BB024B0422D5
:10645C005A60024A1A60704718E70320F0750B0067
:10646C00002340681A46FFF717BB40680022022140
:10647C00FFF722BB002240681146FFF715BB002234
:10648C0040681146FFF720BB002340681A461946A6
:10649C00FFF722BB002340681A461946FFF724BBBE
:1064AC0040680021FFF748BB40680021FFF74CBB58
:1064BC004068002281F00101FFF71EBB40680022FA
:1064CC00FFF72ABB002240681146FFF72DBB0022C4
:1064DC0040681146FFF718BB2DE9F04395B0144600
:1064EC000D460746FFF70CFE00211C220DA800915B
:1064FC0000F078F940230C9320466B460CAA00213F
:10650C00FFF72EF9044600284BD10246012168689A
:10651C00FFF7DAFA0221804622466868FFF7D4FAC0
:10652C00009E81462146002E3BD0002939D173684C
:10653C00022B03D00A2B11D0F669F4E7B8F1000F47
:10654C00FAD0716906A8043107ADFFF707FE0FCD2D
:10655C003C1D0FC42B6823704146EDE7B9F1000FC9
:10656C00EAD07469102201A800F03CF906238DF8DA
:10657C00143001AD04F108031834186859682A4620
:10658C0003C20833A3421546F7D101A906A807ADEB
:10659C00FFF7C4FD0FCD3C1D0FC42B68237049467B
:1065AC00CAE70098FFF7D4F8384615B0BDE8F08379
:1065BC00024B034A1A6000225A60704720E70320FE
:1065CC002C760B00232813B502D9002002B010BD85
:1065DC00A0F10B03022B1AD8174C2178BFF35B8F59
:1065EC0011F001010BD120460191FDF765FD0199D8
:1065FC0028B11248FFF724FB2046FDF762FD0F4B34
:10660C001878FFF7BDF90028DFD10120DEE701285B
:10661C0009D800F0ADF80021007CFFF789F980F073
:10662C000100C0B2D2E709380128EED800F060F8BA
:10663C00007CFFF71DF9F2E714E6032018E60320AF
:10664C00232838B504460D460AD8FF2908D0FFF791
:10665C00B9FF28B129462046BDE83840FFF788B875
:10666C0038BD38B504460D46FFF78AF8FF2810D020
:10667C00062804D84D2323FA00F0C30709D420467A
:10668C00FFF7A0FF28B129462046BDE83840FFF7A8
:10669C007FB838BD10B50446FFF772F8031FDBB2A4
:1066AC00012B08D92046FFF78DFF20B12046BDE80D
:1066BC001040FFF775B8002010BD704738B5044680
:1066CC0014252A46002100F08DF825804025074925
:1066DC0025812846258200F06FF804496060284621
:1066EC0000F06AF8E060204638BD00BF60760B0011
:1066FC0030B50E4D2978BFF35B8F11F0010487B0D4
:10670C0011D12846FDF7D8FC68B101A8FFF7D6FFD8
:10671C0001AA21460648FFF7EFFD2846FDF7D1FCFC
:10672C00044800F04BF8024807B030BD28E70320BE
:10673C002CE70320C7660B007047000038B50A4BE6
:10674C0003600123044643610849202000F034F81B
:10675C00202560600549A560284600F02DF8C4E9A5
:10676C000305204638BD00BF1800010060760B0001
:10677C0030B50E4D2978BFF35B8F11F0010487B053
:10678C0011D12846FDF798FC68B16846FFF7D6FF93
:10679C006A4621460648FFF7EFFD2846FDF791FCB7
:1067AC00044800F00BF8024807B030BD44E7032062
:1067BC0048E7032045670B00FDF76DBC002301463D
:1067CC001A46184600F044B80A44914200F1FF33CF
:1067DC0000D1704710B511F8014B03F8014F9142ED
:1067EC00F9D110BD02440346934200D1704703F81F
:1067FC00011BF9E738B5104B1D68AB6B0446B3B9F8
:10680C001820FFF7B1F90246A86320B90B4B0C48CE
:10681C004221FFF7C1F90B490B4BC0E900130B4B9D
:10682C0083600B23838100210120C2E90401AB6B3F
:10683C0000221C615A6138BDACE5032061760B0067
:10684C0078760B000E33CDAB34126DE6ECDE050022
:10685C002DE9F843DFF8B8800646D8F800001F464B
:10686C000D46914600F056F8254B1C6834B9254C62
:10687C001C60254B13B11B68C4F8883063681F2B50
:10688C0007DDD8F8000000F047F84FF0FF30BDE806
:10689C00F8834EB3D4F8880088B91C4B23B9D8F8C8
:1068AC00000000F038F8F0E74FF48470FFF75CF963
:1068BC000028F4D00023C0E94033C4F88800636892
:1068CC0040F8239001229A4000EB8301D0F800316C
:1068DC001343C0F80031022EC1F8807002BFD0F80B
:1068EC0004311343C0F804316368D8F800005A1C13
:1068FC000233626044F8235000F00EF80020C6E723
:10690C00E8E703205CE7032000000000755B0B0048
:10691C0010E6032070477047704700002D400B00B5
:10692C0069400B0091400B0095400B0000000000EB
:10693C0043616C6C206F6E20707572652076697285
:10694C007475616C0064656661756C7420004D53E0
:10695C0042004C5342003C53504953657474696E69
:10696C0067732064656661756C743E003C535049D6
:10697C0053657474696E67732025732575202573B0
:10698C00204D4F444525753E00582C20592C205A3B
:10699C003A0025642C25642C2564000000000000BE
:1069AC000000000001410B00D5400B00D7400B004C
:1069BC0000000000003E5B4F5B3E3E6B4F6B3E1C8D
:1069CC003E7C3E1C183C7E3C181C577D571C1C5EA4
:1069DC007F5E1C00183C1800FFE7C3E7FF0018247B
:1069EC001800FFE7DBE7FF30483A060E2629792925
:1069FC0026407F050507407F05253F5A3CE73C5A5A
:106A0C007F3E1C1C08081C1C3E7F14227F22145F36
:106A1C005F005F5F06097F017F006689956A606091
:106A2C0060606094A2FFA29408047E040810207E8B
:106A3C00201008082A1C08081C2A08081E10101010
:106A4C00100C1E0C1E0C30383E3830060E3E0E0656
:106A5C00000000000000005F0000000700070014A9
:106A6C007F147F14242A7F2A122313086462364968
:106A7C005620500008070300001C22410000412250
:106A8C001C002A1C7F1C2A08083E08080080703055
:106A9C0000080808080800006060002010080402C4
:106AAC003E5149453E00427F4000724949494621CA
:106ABC0041494D331814127F1027454545393C4A3E
:106ACC004949314121110907364949493646494955
:106ADC00291E00001400000040340000000814229D
:106AEC00411414141414004122140802015909060B
:106AFC003E415D594E7C1211127C7F494949363E0C
:106B0C00414141227F4141413E7F494949417F09F1
:106B1C000909013E414151737F0808087F00417FFC
:106B2C0041002040413F017F081422417F404040FA
:106B3C00407F021C027F7F0408107F3E4141413E92
:106B4C007F090909063E4151215E7F091929462614
:106B5C004949493203017F01033F4040403F1F2018
:106B6C0040201F3F4038403F6314081463030478EF
:106B7C0004036159494D43007F414141020408100F
:106B8C0020004141417F040201020440404040404A
:106B9C00000307080020545478407F2844443838B8
:106BAC0044444428384444287F385454541800082A
:106BBC007E090218A4A49C787F0804047800447D04
:106BCC0040002040403D007F1028440000417F40A1
:106BDC00007C047804787C080404783844444438F5
:106BEC00FC1824241818242418FC7C0804040848D5
:106BFC005454542404043F44243C4040207C1C2026
:106C0C0040201C3C4030403C44281028444C909080
:106C1C00907C4464544C44000836410000007700DA
:106C2C0000004136080002010204023C2623263CE7
:106C3C001EA1A161123A4040207A38545455592172
:106C4C00555579412254547842215554784020545A
:106C5C005579400C1E5272123955555559395454A8
:106C6C00545939555454580000457C410002457D17
:106C7C00420001457C407D1211127DF0282528F040
:106C8C007C545545002054547C547C0A097F49326D
:106C9C00494949323A4444443A324A4848303A41E4
:106CAC0041217A3A42402078009DA0A07D3D42428D
:106CBC00423D3D4040403D3C24FF2424487E494316
:106CCC00662B2FFC2F2BFF0929F620C0887E090389
:106CDC0020545479410000447D413048484A3238B0
:106CEC004040227A007A0A0A727D0D19317D2629DC
:106CFC00292F28262929292630484D4020380808D4
:106D0C00080808080808382F10C8ACBA2F10283407
:106D1C00FA00007B000008142A142222142A1408FA
:106D2C005500550055AA55AA55AAFF55FF55FF0009
:106D3C000000FF00101010FF00141414FF001010BE
:106D4C00FF00FF1010F010F0141414FC001414F7D2
:106D5C0000FF0000FF00FF1414F404FC14141710BF
:106D6C001F10101F101F1414141F00101010F0000F
:106D7C000000001F101010101F10101010F0100049
:106D8C000000FF101010101010101010FF10000059
:106D9C0000FF140000FF00FF00001F10170000FC94
:106DAC0004F414141710171414F404F40000FF0066
:106DBC00F714141414141414F700F71414141714EF
:106DCC0010101F101F141414F4141010F010F000F5
:106DDC00001F101F0000001F14000000FC14000016
:106DEC00F010F01010FF10FF141414FF14101010FA
:106DFC001F00000000F010FFFFFFFFFFF0F0F0F0AD
:106E0C00F0FFFFFF0000000000FFFF0F0F0F0F0F40
:106E1C003844443844FC4A4A4A347E02020606028C
:106E2C007E027E0263554941633844443C04407EF3
:106E3C00201E2006027E020299A5E7A5991C2A496C
:106E4C002A1C4C7201724C304A4D4D3030487848F7
:106E5C0030BC625A463D3E494949007E0101017EE3
:106E6C002A2A2A2A2A44445F444440514A44404036
:106E7C00444A51400000FF0103E080FF0000080875
:106E8C006B6B083612362436060F090F06000018F5
:106E9C00180000001010003040FF0101001F01011C
:106EAC001E00191D1712003C3C3C3C000000000069
:106EBC0000000000000000000000000000000000C6
:106ECC0049490B00015E0B00AD400B004F430B001A
:106EDC0051430B0083430B005F430B0071430B00CA
:106EEC0091420B004F430B007B450B0079450B0087
:106EFC009B430B00D9430B0013440B0059440B006C
:106F0C0075440B00F9440B00000000000000000069
:106F1C00594A0B00794A0B0049490B00015E0B00E2
:106F2C003D4C0B004F430B0051430B0083430B00B4
:106F3C005F430B0071430B0091420B004F430B005E
:106F4C007B450B00DB4D0B0083530B0035530B00C3
:106F5C0013440B0059440B0075440B00F9440B000F
:106F6C000000000000018000000000000000000094
:106F7C00038000000000000000000007C0000000BB
:106F8C0000000000000007C000000000000000002E
:106F9C00000FC00000000000000000001FE0000017
:106FAC00000000000000001FE000000000000000D6
:106FBC0000003FE00000000000000000003FF00077
:106FCC0000000000000000007FF000000000000046
:106FDC00001FF87FF0000000000000003FFE7FF073
:106FEC00000000000000003FFF7FF00000000000E8
:106FFC0000001FFFFBE0000000000000000FFFF985
:10700C00FFC00000000000000FFFF9FFF8000000B7
:10701C0000000007FFF1FFFF00000000000003FC70
:10702C0073FFFF80000000000001FE3FFFFF8000A7
:10703C000000000000FF1E0FFF0000000000000019
:10704C007FFE1FFC000000000000003FFFFFF80067
:10705C000000000000000FDFFFE000000000000057
:10706C00001F19FFC0000000000000003F3CFF00A3
:10707C00000000000000007E7CF800000000000012
:10708C0000007FFE7C0000000000000000FFFFFC01
:10709C000000000000000000FFFFFE0000000000E8
:1070AC00000000FFFFFE0000000000000001FFEFE9
:1070BC00FE0000000000000001FFCFFE00000000F9
:1070CC0000000003FF07FE0000000000000003FCAE
:1070DC0007FE0000000000000003F003FE000000AB
:1070EC0000000000018000FE000000000000000015
:1070FC0000007E000000000000000000003E0000C8
:10710C0000000000000000000C0000000000000760
:10711C008000FC000003C0000000078001FC0000A0
:10712C0003C0000000078001FC000003C000000049
:10713C00078001E00000001E000000078001E00055
:10714C0000001E007FE3F79FF9FDE7787BDFC0FFAF
:10715C00F7FFBFFDFDFF787BDFC0FFF7FFBFFDFD35
:10716C00FF787BDFC0F0F787BC3DE1FF787BDE006A
:10717C00F0F787BC3DE1F0787BDE0000F787803DBF
:10718C00E1E0787BDE007FF7879FFDE1E0787BDE36
:10719C0000FFF787BFFDE1E0787BDE00F0F787BCEE
:1071AC003DE1E0787BDE00F0F787BC3DE1E0787BE9
:1071BC00DE00F0F787BC3DE1E0787BDE00FFF7FFF7
:1071CC00BFFDE1E07FFBDFC0FFF7FFBFFDE1E07F2C
:1071DC00FBDFC07CF3F39F3DE1E03E7BCFC00000C2
:1071EC00000000000000000000FFFFFFFFFFFFFF9A
:1071FC00FFFFFFC0FFFFFFFFFD68DB111A31C0FF6F
:10720C00FFFFFFFD2B5AFB6AEFC0FFFFFFFFFD4B9B
:10721C005B3B1A33C0FFFFFFFFFD6B5BDB6AFDC0FE
:10722C0000006000000000000000000000000000F2
:10723C0000E0000000000000000000000000000161
:10724C00E00000000000000000000000000001F061
:10725C000000000000000000000000000003F0002F
:10726C0000000000000000000000000007F000001B
:10727C00000000000000000000000007F800000003
:10728C00000000000000000000000FF800000003E8
:10729C00C0007E000001E0007F0FF800000003C07A
:1072AC0000FE000001E000FFEFF800000003C0004A
:1072BC00FE000001E000FFFFF800000003C000F03A
:1072CC000000000F007FFE7FC0000003C000F00034
:1072DC0000000F003FFE7FF83FF1FBCFFCFEF3BC3C
:1072EC003DEFE01FFE7FFF7FFBFFDFFEFEFFBC3D9F
:1072FC00EFE01FC6FFFF7FFBFFDFFEFEFFBC3DEF95
:10730C00E00FE3C7FE787BC3DE1EF0FFBC3DEF0051
:10731C0007FF87FC787BC3DE1EF0F83C3DEF0001D5
:10732C00FFFFF0007BC3C01EF0F03C3DEF0001F30B
:10733C007FE03FFBC3CFFEF0F03C3DEF0003E33FAB
:10734C00807FFBC3DFFEF0F03C3DEF0007E73C0025
:10735C00787BC3DE1EF0F03C3DEF0007FFBE0078EB
:10736C007BC3DE1EF0F03C3DEF0007FFFE00787B98
:10737C00C3DE1EF0F03C3DEF000FFFFE007FFBFF75
:10738C00DFFEF0F03FFDEFE00FFFFF007FFBFFDFC4
:10739C00FEF0F03FFDEFE00FF9FF003E79F9CF9ED4
:1073AC00F0F01F3DE7E01FF1FF00000000000000BF
:1073BC0000000000001F80FF007FFFFFFFFFFFFFAA
:1073CC00FFFFFFE01C007F007FFFFFFFFEB46D8816
:1073DC008D18E000001F007FFFFFFFFE95AD7DB50F
:1073EC0077E000000F007FFFFFFFFEA5AD9D8D191C
:1073FC00E0000006007FFFFFFFFEB5ADEDB57EE0BF
:10740C000000000000000000114C0B00294C0B0088
:10741C0049490B00015E0B003D4C0B004F430B0028
:10742C0051430B0083430B005F430B0071430B0074
:10743C0091420B004F430B007B450B00DB4D0B00C7
:10744C0083530B0035530B0013440B0059440B00B2
:10745C0075440B00F9440B000080C0E0F0F8FCFE12
:10746C00000103070F1F3F7FAED580A8D300408DCE
:10747C002000A1C8DB40A4A62EAFDA02818FDA125D
:10748C0081DA02812200FF21006465766963652040
:10749C006E6F7420666F756E640000000000000053
:1074AC0000000000000000000000000019560B0056
:1074BC00AD400B00AD400B000000000000000000D0
:1074CC0005550B0007550B003B560B0045550B00A3
:1074DC0087550B0015550B002F550B0000000000B5
:1074EC0000000000235C0B00195C0B000F5C0B0010
:1074FC00055C0B00F95B0B00ED5B0B00AD640B0046
:10750C00B5640B00E15B0B00D95B0B00CF5B0B0090
:10751C00C55B0B00E5640B00000810182028303800
:10752C006170700025592D256D2D25645425483A20
:10753C00254D3A2553257A0061736374696D650096
:10754C000000000000000000A9600B0099600B0017
:10755C009B600B0000000000000000008F610B001E
:10756C00F7610B00CD610B00015E0B00BF610B00DE
:10757C0091610B00A1610B00F1610B00B1610B007B
:10758C0089610B00000000000000000089620B0004
:10759C00F5620B00CD620B00015E0B009D620B00CF
:1075AC00B9620B00AB620B00C7620B008B620B0065
:1075BC008F620B0000000000000000002D630B0028
:1075CC0077630B004F630B002F630B0057630B00AB
:1075DC005F630B0067630B006F630B000000000020
:1075EC00000000004F640B0045640B003B640B0073
:1075FC00F1630B002F640B0023640B00AD640B00D4
:10760C00B5640B0017640B000F640B0005640B00D2
:10761C00FB630B00E5640B000000000000000000A1
:10762C006D640B0077640B0081640B008B640B00A2
:10763C0095640B00A1640B00AD640B00B5640B00EA
:10764C00BD640B00C9640B00D1640B00DB640B0040
:10765C00E5640B00005245454E54206D616C6C6F17
:10766C006320737563636565646564002F6D6E7468
:10767C002F776F726B73706163652F776F726B739B
:10768C00706163652F4743432D31302D70697065F0
:10769C006C696E652F6A656E6B696E732D4743431B
:1076AC002D31302D706970656C696E652D34385FC5
:1076BC0032303230313132345F313630363138306D
:1076CC003634312F7372632F6E65776C69622F6E4F
:1076DC0065776C69622F6C6962632F7374646C6973
:1076EC00622F72616E642E6300000000F5410B0086
:1076FC002D5C0B00CD5D0B00F15D0B00295F0B00C9
:10770C00395F0B00555F0B0059640B00BD650B0016
:10771C00040000001400000003000000474E550058
:10772C0009F417D1CE95C0876B65382EBA41721407
:04773C00A35A836960
:1077400044750B00B0E503200000000000000000BD
:107750000000000000000000000000000000000029
:107760000000000000000000000000000000000019
:107770000000000000000000000000000000000009
:1077800000000000000000000000000000000000F9
:1077900000000000000000000000000000000000E9
:0C77A0000000000000000000ECE70320E7
:0477AC0000000000D9
:1077B60000000102030405060708090A0B0C0D0E5A
:1077C6000F101112131415161718191A1B1C1D1E4B
:0477D6001F20280048
:0477DA007856341297
:04000003B000401CED
:00000001FF
